:100000000C941D020C94ED1C0C943A020C943A02D0
:100010000C943A020C943A020C943A020C943A0270
:100020000C943A020C943A020C9412220C94E6229C
:100030000C946C1B0C943A020C943A020C943A0205
:100040000C943A020C943A020C943A020C943A0240
:100050000C943A020C940F1C0C943A020C943A0241
:100060000C943A020C943A020C943A020C943A0220
:100070000C943A020C943A020C943A020C943A0210
:100080000C943A020C943A020C943A020C943A0200
:100090000C943A020C943A020C943A020C943A02F0
:1000A0000C943A020C943A020C943A02BC001E00E2
:1000B0001F00200021002200AA0014001A000800DE
:1000C00015001742A80004211624072809220A4314
:1000D000AE001D001B0006001900054100000000D5
:1000E0002D022D0034002C00000000002B08210AF6
:1000F0002B00290023002400250026002700BB0038
:100100001C0018000C0012001300A9000B000D3297
:100110000E380F34333134001141100036003700EF
:100120003800310028002A002E005700000000008F
:1001300029002B00220A35180000000000000000F2
:100140000000000000000000350235001E021F0202
:1001500020022102000022022302240225022E0096
:100160002D022D0031003800330034000000000063
:1001700036003700A952E10000000000E100210A2A
:100180002B002900000000000000000036023702AA
:1001900000005F00600061002602270200005C3260
:1001A0005D385E342F313000000059005A005B008A
:1001B0002F023002E5002A0062000000000000006B
:1001C000E500E200220AE0000000000045003A00DD
:1001D0003B003C003D003E00BE000000000000006F
:1001E000000000000000000000000000000000000F
:1001F00000000000000000000000000000000000FF
:10020000000000000000E10000000000000000000D
:100210004B004A003F0040004100420043004400C0
:1002200000000000000000000000BD005000510070
:1002300052004F000000000000000000000000001D
:1002400000000000000000000000000000000000AE
:100250004D004E0000000000000000000000000003
:10026000000000000000000000000000000000008E
:10027000000000000000000000000000000000007E
:10028000000000000000000000000000000000006E
:10029000000000000000D10000000000D3000000BA
:1002A0000000D400DD00DE00DF0000002D012E0381
:1002B000D90000000000000000000000CF00CE00C8
:1002C000CD00D00000000000DA00000000000000B7
:1002D00000000000D2000000DB00DC000000000095
:1002E000D500000000000000000000002C034400C6
:1002F00061006300740079006C002D004D00610006
:100300006E00750066006F0072006D00200028000E
:10031000350078003600290000000E0374007300D9
:1003200068006F00720074000000040309040902F1
:100330003B00020100A0FA090400000103010100D2
:100340000921110100012244000705810308000171
:10035000090401000103000000092111010001222C
:100360007B0007058203200001120100020000004B
:10037000084D44363501000102000105010902A1C2
:100380000185020901A100050919012908150025A7
:100390000195087501810205010930093115812592
:1003A0007F95027508810609381581257F950175AD
:1003B000088106050C0A38021581257F950175080C
:1003C0008106C0C005010980A101850319012AB772
:1003D00000150126B700950175108100C0050C09B4
:1003E00001A101850419012AA002150126A0029588
:1003F0000175108100C005010906A101050719E07A
:1004000029E71500250195087501810295017508F8
:1004100081010507190029FF150026FF00950675C3
:1004200008810005081901290515002501950575A4
:10043000019102950175039101C011241FBECFEFF8
:10044000DAE0DEBFCDBF11E0A0E0B1E0ECE4FBE418
:1004500002C005900D92AA3AB107D9F722E0AAEAA4
:10046000B1E001C01D92A73CB207E1F70E947D14E4
:100470000C9465250C9400008430B8F46C30A8F41A
:10048000463098F450E096E0699F400D511D1124CC
:10049000FA0198E4899FE00DF11D1124EE0FFF1F72
:1004A000E455FF4F85919491089581E090E008957F
:1004B0000E943C02089581E008950E945B02089525
:1004C00081E008950E945B0208950E9462020895EF
:1004D00008950E9468020895A6E0B0E0E2E7F2E025
:1004E0000C94C12449835A839E833091B101898140
:1004F0009A8131111AC03E81332399F0222389F069
:100500000E946D08182F682F89819A810E944908DE
:1005100069817A81812F0E945F0F2696E3E00C9417
:10052000DD240E945B08182FF3CF0E946D086981BB
:100530007A81F1CFFC01262F408151816281738144
:10054000848195810E946C020895CF93DF93EC0122
:1005500061E00E949A02BE010E945D02DF91CF918C
:100560000895CF93DF93EC0160E00E949A02BE01F0
:100570000E946902DF91CF91089508950E941E079D
:100580000E94BD022FEF84E39CE021508040904008
:10059000E1F700C0000008950E94BE020E94331CD3
:1005A00008950E94BE020E94441C08950F931F9359
:1005B000CF93DF938C0161E00E949A02EC01B801B5
:1005C0000E946502811106C080E0DF91CF911F91EA
:1005D0000F910895B801CE010E94E2198823A1F37A
:1005E000B801CE010E942B17882371F3B801CE0108
:1005F0000E945419882341F3F8018581882361F012
:10060000C330FCE7DF07E9F058F4C115ECE7DE077B
:10061000A9F0C130DC47B9F0C8010E946002D5CF13
:10062000CB358CE7D807A9F0CC35ECE7DE0771F0C5
:10063000CA35DC4789F70E94B40CEECF0E94CC0289
:10064000C3CF0E94BC0C0E94D102BECF0E94AA0C54
:10065000E3CF0E94B80CE0CF0E94491B0E945303D5
:1006600008950E9457030E944E1B0895089581E04B
:1006700008950895CF93DF93D82F0E943703C82F92
:10068000882319F08D2F0E9439038C2FDF91CF9191
:1006900008950895CF93C82F0E9436038C2F0E948F
:1006A0003A03CF91089580E00E944A0308950E9482
:1006B0002B1A0E944A030895CF930E942B1AC82F29
:1006C0008091AC018C1779F0C093AC010E94D81BCB
:1006D0006093AD017093AE018093AF019093B00130
:1006E0008C2F0E944A03CF910895ADE0B0E0EBE774
:1006F000F3E00C94C224488759876A877B878C87EC
:100700009D8791110E94E20B1F8286E0FE013896C0
:10071000DE01119601900D928A95E1F78D8181118C
:100720000DC029813A814B815C816D817E818F81F1
:100730000E94150B2D96E2E00C94DE24CE0101966A
:100740000E94A5028111EDCFF5CFFC01248121305B
:1007500021F4808191810E949F080895662329F0E9
:100760000E9414150E94E71508950E946E15FACF95
:10077000CF93C82F8823C9F08238C9F40E943F1A4A
:1007800081FD13C089E30E949A0B0E941B0C2FEF7E
:1007900087EE93E0215080409040E1F700C00000D8
:1007A00089E30E94A20B0E941B0CCF91089583380D
:1007B000A1F40E943F1A80FDF8CF83E50E949A0BB6
:1007C0000E941B0C2FEF81EE94E02150804090405E
:1007D000E1F700C0000083E5E4CF8438A1F40E9473
:1007E0003F1A82FDE2CF87E40E949A0B0E941B0C05
:1007F0002FEF81EE94E0215080409040E1F700C05F
:10080000000087E4CECF8CEF8C0F813AB8F48C2FA8
:100810000E9498188111C9CF6C2F8091000190918E
:1008200001010E94B71A882329F08C2F0E94A20B85
:100830000E941B0C8C2F0E949A0BB5CF80E28C0F6C
:10084000883048F4C77081E001C0880FCA95EAF784
:100850000E94C50BA8CFEBE5EC0FE33040F4F0E0CD
:10086000E05AFE4F808190E00E945B1A9ECFE8E53F
:10087000EC0FEB3150F4F0E0EE0FFF1FE65DFE4FA2
:10088000808191810E94801A90CF83E38C0F833105
:1008900008F08BCF61E08C2F0E94AE0386CF8823B7
:1008A00009F456C0823879F40E943F1A81FF50C083
:1008B00089E30E949A0B0E941B0C89E30E94A20B01
:1008C0000E941B0C0895833859F40E943F1A80FF40
:1008D0003FC083E50E949A0B0E941B0C83E5EECF7C
:1008E000843859F40E943F1A82FF32C087E40E9484
:1008F0009A0B0E941B0C87E4E1CF9CEF980F913A72
:10090000E8F290E2980F983050F4877091E001C0BF
:10091000990F8A95EAF7892F0E94CB0BD1CF9BE5DF
:10092000980F933028F490E080E00E945B1A0895BD
:1009300098E5980F9B3128F490E080E00E94801A9F
:10094000089593E3980F933118F460E00E94AE038A
:1009500008951F93CF93DF93182FEB010E94B803E4
:10096000209739F4812F0E944F04DF91CF911F917E
:1009700008958FE99FE00197F1F700C000002197EB
:10098000EFCF70E060E0893311F460E570E00E9421
:10099000A9040895882321F00E94C50B0E941B0C16
:1009A0000895882321F00E94CB0B0E941B0C089510
:1009B000B0E0A0E0EEEDF4E00C94BB246C01D62F87
:1009C000C72FFC011581068102950F700E94BB0B99
:1009D000E82E8823E9F0E12E1123D1F08C2F807FBF
:1009E000803451F080E28D0F8830F8F0011104C09E
:1009F0008C2F807E8032C9F080919B0282FF15C0CF
:100A000082E00E947E0C0E94BB0B91E0E82EE9265A
:100A1000BC2EB2949FE0B922FBE0FB15B8F1EB2DA0
:100A2000F0E0E959FA4D0C94AC24E12CF1CF0C2FF5
:100A30000F70C07F11F00295007F112399F0002301
:100A400059F080E28D0F883010F0D11107C0802F4F
:100A50000E94C50B0E941B0C8D2F5AC0802F0E9434
:100A6000D50BF8CF8D2F0E944F04002379F080E240
:100A70008D0F883010F0D11104C0802F0E94CB0B55
:100A800003C0802F0E94DB0B0E941B0CEB2DE85053
:100A9000FF0B349720F40E942B1A0E944A03EE2089
:100AA00089F00E94B70B80FD0DC0F60115820E94EF
:100AB000B10B0E94A707C6010E94E5060E94B10B78
:100AC0000E94B707CDB7DEB7E9E00C94D7242C2FEE
:100AD0002F70F22EC07FC03219F0F29480EFF8220E
:100AE000DD2341F0D130D1F1112309F444C00023BA
:100AF000F1F0B2CF80919B0282FD15C0112359F015
:100B0000FF2029F08F2D0E94C50B0E941B0C80E056
:100B10000E94B803BBCF80E00E944F04FF2009F47D
:100B2000B5CF8F2DABCF112369F0011104C08F2DEC
:100B30000E94CA04ABCF013009F0A8CF8F2D0E94CC
:100B4000F90BA4CF0111A2CF8F2D0E94D1048F2DBC
:100B50000E94050C8F2D0E94E90B98CF112321F0E4
:100B6000063008F093CFE3CF053008F08FCF8F2DFC
:100B70000E94D1048BCF0023D1F3D93349F43FEF46
:100B800087EE93E0315080409040E1F700C00000D4
:100B90008D2F0E944F047ACF8C2F86958695837077
:100BA00069F0813009F072CF8D2F9C2F9370111155
:100BB00002C080E090E00E94801A68CF8D2F9C2FA9
:100BC0009370111102C080E090E00E945B1A5ECF2A
:100BD000612F8D2F0E94AE0359CF8C2F8370A1F50A
:100BE000111154CF4D2F429546954770440F440F35
:100BF0002D2F2F7030E0042E02C0220F331F0A94D5
:100C0000E2F790E080E0D4FF09C08FE090E002C0FE
:100C1000880F991F4A95E2F780959095C695C695DD
:100C2000C370822B932BC23049F058F4C13019F0B5
:100C30000E9477072BCF0E946E0728CF0E94800763
:100C400025CF0E946B0722CF8695112311F08C2FA0
:100C50008170882309F41ACF4D2F4295469547702D
:100C6000440F440F2D2F2F7030E0042E02C0220FAE
:100C7000331F0A94E2F790E080E0D4FF09C08FE0D0
:100C800090E002C0880F991F4A95E2F780959095F1
:100C9000C695C695C370822B932BC23049F058F489
:100CA000C13019F00E94E207F1CE0E94D907EECEC2
:100CB0000E94EB07EBCE0E948F07E8CECF70112386
:100CC00029F08C2F0E94A7078D2F32CF8D2F0E94E5
:100CD000D1048C2F0E94B707D9CED23F41F160F4E6
:100CE000D03FB9F0D13F81F0112309F446C0011182
:100CF000B3CE8C2F8F711FC0D33F01F1D43FA1F72A
:100D000080919B0282FD24C08C2F8F71112311F3DF
:100D100012C0112341F0053008F0B8CE8C2F8F712E
:100D20000E94C907B3CE063008F0B0CEF7CF8C2FA3
:100D30008F711111CFCF0E94A707A8CE112329F0E0
:100D40008C2F8F710E949B07A1CE0E9496079ECE8A
:100D5000112349F0CF718C2F0E94A70763E08C2FDD
:100D60000E94600C93CE81E00E947E0C023008F459
:100D70008DCE82E00E947E0C89CE002359F0D933BB
:100D800009F006CFEFEFF7EE23E0E150F04020400E
:100D9000E1F7FCCE8C2F8F719DCF0F931F93CF93D4
:100DA000DF93EC01688179818D810E94AA088C0112
:100DB0000E94F4070E946A07B801CE010E94D8047D
:100DC000DF91CF911F910F910895CF93DF93EC01A5
:100DD0008C81882399F0CE010E94D602811111C026
:100DE0000E94BB0B882351F08D81882339F08091BC
:100DF0009B0282FF03C082E00E947E0CDF91CF91B4
:100E00000895CE010E94CD06CE010E94B102F6CF18
:100E100090E080E00E945B1A90E080E00E94801ADF
:100E20000E94E20B0E941B0C0E9403160E94E71511
:100E300008950E94AA0B0E94080708950E94D20BF1
:100E40000E941907089592959F70963091F058F47A
:100E5000925F9F70923058F4803F19F030F4883ED2
:100E600030F481E008959A5FF4CF843FD1F380E0BD
:100E70000895883EB0F3813FD1F7F3CFFC01248180
:100E8000222339F0808191810E949F080E942307CC
:100E9000089580E00895A6E0B0E0E1E5F7E00C9465
:100EA000C2242696E2E00C94DE24A7E0B0E0EBE555
:100EB000F7E00C94C2242796E2E00C94DE24089517
:100EC0000E945F0708950E9460079093D901809364
:100ED000D801089508950E94630708952091D801CC
:100EE0003091D901822B932B0E94630708952091A2
:100EF000D8013091D901822393230E94630708957A
:100F00002091D8013091D901822793270E9463074D
:100F100008950E945F0708950E94890708950E941E
:100F20008C079093D7018093D601089590E080E0DC
:100F30000E948F07089521E030E0A90102C0440F0C
:100F4000551F8A95E2F7CA010E948F07089521E094
:100F500030E002C0220F331F8A95E2F78091D6015C
:100F60009091D701822B932B0E948F07089521E047
:100F700030E002C0220F331F8A95E2F720953095AA
:100F80008091D6019091D701822393230E948F07ED
:100F9000089521E030E002C0220F331F8A95E2F766
:100FA0008091D6019091D701822793270E948F07C5
:100FB00008952091D6013091D701822B932B0E9466
:100FC0008F0708952091D6013091D7018223932372
:100FD0000E948F0708952091D6013091D701822772
:100FE00093270E948F0708950895262F277091E078
:100FF00001C0990F2A95EAF723E0769567952A951F
:10100000E1F7660F771F660F771FFA01E60FF71FEC
:1010100050E040E0682F70E08191DF0111979B0163
:10102000042E02C0369527950A94E2F72170219587
:101030002827292328272C934F5F5F4F44305105E1
:1010400059F70895A82FA77023E0969587952A95BC
:10105000E1F7880F991F880F991FFB01E80FF91F0F
:1010600050E040E080E0219130E00A2E02C0369549
:1010700027950A94E2F721703327042E01C0220F2E
:101080000A94EAF7822B4F5F5F4F4430510559F7BE
:101090000895262F9C3070F4863060F4682F70E03D
:1010A00086E0989F600D711D112442EB51E0822F64
:1010B0000E94F5070895292F9C3068F4863058F473
:1010C00090E062EB71E036E0239F800D911D1124CA
:1010D0000E942208089580E00895B0E0A0E0E3E7D0
:1010E000F8E00C94BB247C010091D6011091D7014B
:1010F0008091D8019091D901082B192BCFE0D0E035
:10110000CC24C394D12CBC2EC6010C2E02C0880F57
:10111000991F0A94E2F780239123892B49F42197A0
:1011200090F7B12C8B2DCDB7DEB7E9E00C94D72426
:10113000B7018C2F0E946B0F019789F3F3CFCF93E8
:10114000DF93EC010E946D08BE010E946B0FDF91DE
:10115000CF9108951F93CF93DF93EB019091B1014D
:10116000992339F0CB010E949F08DF91CF911F9105
:101170000895882369F0CB010E946D08182F682F0D
:10118000CE010E944908BE01812F0E946B0FEDCF56
:10119000CB010E945B08182FF6CF1F93CF93DF93EC
:1011A000C091DA0117E08091DB018C1304C0DF915C
:1011B000CF911F910895D0E01C9FF0011D9FF00D6D
:1011C0001124E452FE4F2081318142815381648198
:1011D000758186810E9455072196C770E4CF2091C2
:1011E000140230911502409116025091170260913D
:1011F00018027091190280911A020E9455070895F1
:10120000CF93DF9380911A02807F09F04DC08091C7
:101210001902882309F448C0E091DA015091DB01FA
:10122000C0911502D09114026091160270911702BC
:1012300047E05E17C9F18E2F90E0E49FF001112482
:10124000E452FE4F2481222391F1489FF001499FEF
:10125000F00D1124DF01A452BE4F11962C9111976D
:101260002C1325C02C912D1322C015962C91159767
:1012700021111DC012962D913C91261B370B283C45
:101280003105A8F480911A028F70806180931A0250
:10129000EE51FE4F80818F708061808384E192E007
:1012A0000E94E5060E94CD08DF91CF910895FC01D0
:1012B0003196E770BECF482F2091DA019091DB0183
:1012C00057E0291302C080E0089530E0529FF001FA
:1012D000539FF00D1124E452FE4F8181681306C024
:1012E0008081481303C085818111EECF2F5F3F4F6E
:1012F0002770E7CFA4E1B0E0E0E8F9E00C94B8246F
:101300008C0186E0F801DE011F9601900D928A950E
:10131000E1F7D80114968C9114971596EC901597D7
:1013200094E1A92E92E0B92E9091180291111FC05C
:101330008823D1F0EE20A9F0C8010E943E07F82EC4
:10134000882379F087E0F801D50101900D928A9504
:10135000E1F7C5010E94A5030E9400090E94EF0861
:101360003DC0C8010E94E506FF24F39437C0F80190
:10137000C080D18082809380F09019022091160263
:1013800030911702A401421B530BFF2009F4F6C051
:10139000483C510508F0A5C0882301F19091150241
:1013A00080911A02282F207F09F067C09D111BC071
:1013B000909114029C1117C0E11059C08F70806188
:1013C00080931A020E94EF0884E192E00E94E506F1
:1013D00080911A02D80116968C93F12C8F2D649669
:1013E000ECE00C94D424E11042C06D2D8C2D0E94B1
:1013F0005B09E82E882371F084E192E00E94E50603
:1014000087E0E4E1F2E0DF011D928A95E9F70E94AE
:10141000EF08E3CFCF86D88A8F8598890E949F08EE
:10142000292F22952F70243058F49F70223088F095
:10143000992399F0F8019681907F79F4FE2CCECF14
:101440002A5F2F70223068F0C8010E94E506EF2C59
:10145000F5CF992311F0882389F3805E883070F3EB
:10146000F3CF803F58F3815F833070F7E7CF8091EF
:101470001A02816080931A02B0CF9D1107C090912B
:1014800014029C1103C0EE2009F49CC0C8010E9404
:101490003E07882309F465CFEE2009F462CF8091DE
:1014A0001A02803288F02091140230911502398797
:1014B00028879B868A86909118029C871D868E8736
:1014C000CE0108960E94E50687E0F801A4E1B2E0AB
:1014D00001900D928A95E1F70E9400090E94EF08A1
:1014E00043CF90911A02292F207F91F4682D9A8A78
:1014F000898AA6017A899E2D0E944B0784E192E099
:101500000E94E50687E0F50111928A95E9F77FCF01
:10151000882309F463CF809115028D1111C0809149
:1015200014028C110DC0E1100BC016969C93C801DB
:101530000E94E50687E0F50111928A95E9F74ECF02
:10154000C8010E943E07882309F40BCFEE2009F45E
:1015500008CF80911A02803208F4B6CF209114028D
:10156000309115023A8329839C828B8290911802D4
:101570009D831E828F83CE010196A4CF483C5105E6
:1015800008F045C0882309F4EFCEFE2CEE2009F4C4
:10159000E8CE809115028D112CC0809114028C111F
:1015A00028C080911A0280FD1BC0982F907FC1F047
:1015B00016968C931697903F39F0982F907F905FF6
:1015C0008F70892B16968C93C8010E94E50687E0E0
:1015D000F801A4E1B2E001900D928A95E1F7BECE48
:1015E00087E0F801A4E1B2E001900D928A95E1F75D
:1015F000F5CEC8010E943E07811166CF80911A0284
:10160000816080931A02C8010E94E506E7CE682D2A
:101610009A8A898AA6017A899E2D0E944B0787E0C3
:10162000F50111928A95E9F799CEAEE0B0E0EBE1D1
:10163000FBE00C94C124288739874A875B876C8735
:101640007D878E87CE0108960E947A098823B1F0A3
:101650006C85662341F0288539854A855B857D85C3
:101660008E850E94550717E08091DA019091DB0189
:1016700089133DC02E96E3E00C94DD2487E0FE0143
:101680003896DE01119601900D928A95E1F78C85CE
:10169000882349F32091DB0130E0C901019687706E
:1016A00099274091DA014817190699F097E0929F1F
:1016B000D001939FB00D1124A452BE4FFE0131966C
:1016C00001900D929A95E1F78093DB010E94CD087D
:1016D000CACF0E941E071092DB011092DA0187E048
:1016E000E4E1F2E0DF011D928A95E9F7BCCF819F2A
:1016F000C001112484529E4F0E947A09882309F464
:10170000B9CFE091DA011E9FF0011124E452FE4F9F
:1017100020813181428153816481758186810E945B
:1017200055078091DA0190E00196877099278093A0
:10173000DA019ACF682F80910001909101010E94F7
:10174000ED1A0895682F80910001909101010E9487
:10175000F01A089580910001909101010E94F31AFE
:1017600008958091230286958695869508958091A7
:1017700023028770089590912302977081E009F405
:1017800080E0089580912F02089590912F02892B77
:1017900080932F020895809590912F029823909323
:1017A0002F02089510922F02089590912E02892BF6
:1017B00080932E020895809590912E029823909305
:1017C0002E02089510922E02089508950E94E50BAE
:1017D000089590912402292F282331F080958923A0
:1017E000809324020E94E60B089508950E94F50B51
:1017F000089590912502292F2823281729F0982B46
:10180000909325020E94F60B089590912502292FAE
:10181000282331F080958923809325020E94F60BBE
:10182000089580912502882329F01092250280E0F6
:101830000E94F60B0895CF93DF93E0910001F091A1
:10184000010180912F028083E0910001F09101015C
:10185000808190912E02892B80839091250299237B
:1018600081F0E0910001F09101018081892B80835A
:1018700080910001909101010E94A51A81110E949E
:10188000110CC0910001D091010148E050E06BE1E2
:1018900072E0CE010E94FD24892B59F088E0FE0100
:1018A000ABE1B2E001900D928A95E1F7CE010E9482
:1018B000421ADF91CF91089508950E945C0C08951B
:1018C00090919B0292FF11C098E0899F9001112492
:1018D000622B609323020E94A707809123028695C2
:1018E000869586950E945D0C08950E94A70708952D
:1018F0001092230280E00E945D0C089590912302D3
:101900008095892380932302282F277069F48917F3
:1019100059F090919B0292FF07C086958695869517
:101920000E94B7070E94780C089590919B0292FB49
:10193000222720F9281769F080FB92F990939B02E7
:1019400080919A0290919B020E94DD0C82E00E949D
:101950007E0C089580919B0282FB882780F991E09C
:1019600089270E94950C089581E00E94950C0895A6
:1019700080E00E94950C08956FEF7FEF90E080E08B
:101980000E944F25089590E080E00E941B2521E0F1
:10199000863E9E4F09F020E0822F089582E090E07D
:1019A0000E941325089583E090E00E941325089576
:1019B00084E090E00E941B250895BC0184E090E043
:1019C0000E944F250895AB01BC018FE090E00E947A
:1019D00043250895AB01BC0183E190E00E944325BB
:1019E000089560E070E0CB010E94EA0C089560E089
:1019F00070E0CB010E94E30C0E94F10C0895A8E076
:101A0000B0E0E5E0FDE00C94C22466EE7EEF90E0ED
:101A100080E00E944F2560E082E090E00E94312546
:101A200060E083E090E00E9431251092D90110928D
:101A3000D80160E074E184E090E00E944F2560E00E
:101A400086E090E00E9431256FEF87E090E00E94F1
:101A5000312540E050E0BA0188E090E00E94432543
:101A600060E084E290E00E94312560E087E190E050
:101A70000E94312560E08CE090E00E94312560E01A
:101A80008DE090E00E94312519821A821B821C820F
:101A90001D821E821F82188648E050E068E170E0D7
:101AA000CE0101960E94212540E050E0BA0180E27B
:101AB00090E00E9443250E94F70C2896E2E00C94E7
:101AC000DE240E94FF0C0895682F8EE090E00E94B3
:101AD00031250895A6E0B0E0E0E7FDE00C94C024D5
:101AE0000E94CC1B8C0180913002909131028017B2
:101AF000910781F019821A820E94CC1B682F4981BC
:101B00005A81792F80E090E00E9475031093310292
:101B1000009330022696E4E00C94DC240E948710A7
:101B20006093420270934302809344029093450273
:101B300060933E0270933F02809340029093410273
:101B40000895089508950E94A10D089508950E9492
:101B5000A60D089581E0089581EA90E10E948A141B
:101B60000E94A20D0E94A30D08950E94691208957B
:101B7000089508950E94B80D0E94B90D08950E941D
:101B8000A4100E94490308950E94C31B0E94611083
:101B90000E9494120E94CA110E94BF0D0E94131746
:101BA0000E949E120E94A70D0895A6E0B0E0EBED02
:101BB000FDE00C94B9240E94AA0D81110CC00E9472
:101BC0006A0D0E9469120E9425160E945C032696E7
:101BD000EBE00C94D5240E94ED1182E3A82E82E064
:101BE000B82E750110E0F70101917F01812F0E944D
:101BF000CA101F5F1C3009F441C00817A1F380917F
:101C0000460281FD0E94D0100E94B50DC82E10E042
:101C100099249394812F0E94CA10082FF501819175
:101C20005F01081729F1D02ED826F12CEE24E39479
:101C30008D2D8E21A9F0CC2099F0F9821A830E9473
:101C4000CC1B9C838B839D8291E0802F8E2109F495
:101C500090E049815A816B817C818D810E9475035E
:101C6000F394EE0CF6E0FF12E3CFF5013197008319
:101C70001F5F1C3079F60E948E0DA3CF0813BFCFD3
:101C80009ECF1F93CF93DF930E94700FEC01C1157D
:101C900080E5D807F0F5C11580E4D80708F09CC0AE
:101CA000C03ED10520F5CD3CD10508F082C0C83A30
:101CB000D10578F4C53AD10508F073C0C130D1051B
:101CC00019F1209709F1C430D105F0F4D0E0C0E05B
:101CD0001BC0C33CD105D0F7C85AD0E0CC0FDD1FE4
:101CE000CD59DE4F0990D881C02DD4640DC0C115E7
:101CF00080E2D80708F0D1C0C11581E0D80708F00C
:101D00005AC0C83ED10510F7CE01DF91CF911F9187
:101D10000895C03682E5D80718F5C03482E5D807A3
:101D200008F06BC0C03282E5D80708F05FC0C1156B
:101D300082E5D80708F497C02C2F2695269580E2D7
:101D4000289F900111248C2F8370C1E0D0E002C045
:101D5000CC0FDD1F8A95E2F7C22BD32BDD68D4CFE1
:101D6000C03A82E5D80760F4C03882E5D80708F4A5
:101D700059C0CF71D0E0DC2FCC27C46FD06AC4CF5C
:101D8000C03C82E5D80708F462C0C03E82E5D807AF
:101D900008F09CCFDC2FCC27CC27DF71C06FD06A36
:101DA000B3CFC55AD0E0C756DE4FC881D0E0D0646B
:101DB000ABCFD065A9CF8D2F0E941210182FCE0166
:101DC00099270E94700FC12FD0E0DC2FCC27CC27A1
:101DD000DF71C82BD92B98CFCE0199270E94700FA5
:101DE000CC27DF70C82BD92BD06A8ECFCF71D0E033
:101DF000DC2FCC27C16FD06A87CF2C2F2695269554
:101E0000277080E2289F900111248C2F8370C1E0FD
:101E1000D0E002C0CC0FDD1F8A95E2F7C22BD32B96
:101E2000DC6872CF2C2F26952695277080E2289F9C
:101E3000900111248C2F8370C1E0D0E002C0CC0F40
:101E4000DD1F8A95E2F7C22BD32BDA685DCF8C2F8A
:101E50008F710E941210C82FD0E0DC2FCC27CC2726
:101E6000DF71D06251CF8C2F8F710E94121055E01C
:101E7000D695C7955A95E1F7CF70D0E0DC2FCC27E7
:101E8000282F30E084FF05C044E0220F331F4A951D
:101E9000E1F7C22BD32BD06937CF8D2F8F710E94E2
:101EA0001210182FCE0199270E94700FC12FD0E079
:101EB000DC2FCC27CC27DF71C82BD92BD2CF462FD4
:101EC0007C3030F4663020F4672F0E945802089569
:101ED00090E080E008950E945F0F0E94410E0895F7
:101EE00082389105B9F1B0F48133910509F47DC0D0
:101EF00048F48932910509F46DC08A32910509F4DC
:101F00007BC008958533910509F45FC0893391053D
:101F100009F10895833E9105D9F138F4803E910589
:101F200029F1823E910579F10895863E9105D9F116
:101F3000873E910509F43EC0843E910541F520910C
:101F40009B0221FF24C080919A0284FD19C087EE74
:101F500090E0089520919A02237009F05AC02091D0
:101F60009B0223FF14C089E290E0089520919A0219
:101F700020FD38C030919B0230FF09C024FF43C0D0
:101F800090E080E0089520919A0222FDF7CF089515
:101F900020919A0222FD3AC030919B0230FD39C057
:101FA00024FFF5CFEDCF20919A0223FFF0CF24FD3F
:101FB000E7CFCDCF20919A0223FD2EC030919B0216
:101FC00031FFEECF84EE90E0089520919A0225FF34
:101FD000DECFC9CF20919A0225FD21C020919B021E
:101FE00023FFD5CF89E390E0D2CF20919A0226FF3C
:101FF000CECF8AE290E0089520919A0226FFC7CFC3
:1020000081E390E0089583EE90E0089582EE90E001
:10201000089580EE90E0089586EE90E0089585E3BF
:1020200090E0089590919A0292FF10C041E0282F0D
:102030002471243009F040E031E0282F2871283045
:1020400009F030E0431711F02CE0822793FF10C015
:1020500041E0282F2471243109F040E031E0282F9D
:102060002871283109F030E0431711F02CE0822765
:1020700030919B0230FF10C051E0282F2171213098
:1020800009F050E041E0282F2871283009F040E0A5
:10209000541711F029E0822731FF10C041E0282FAA
:1020A0002171213109F040E031E0282F28712831D9
:1020B00009F030E0431711F029E0822794FD877E74
:1020C0000895109296021092970210929802109220
:1020D00099020895CF92DF92EF92FF926B017C01FB
:1020E0000E94691281110EC00E94D81BC61AD70A1D
:1020F000E80AF90AC0929602D0929702E0929802FA
:10210000F0929902FF90EF90DF90CF9008950F9397
:102110001F930E946912882329F00E94D81B1F91E7
:102120000F9108950E94D81B00919602109197027A
:102130002091980230919902600F711F821F931FA6
:10214000EECF80E0089508950E94C30C811102C073
:102150000E94610D0E94CE0C809346020E94D80C12
:1021600090939B0280939A020E94A3100E94D30C2A
:1021700090E00E946B078091D6019091D7010E9458
:102180008C07089508950E94C210089508950E9432
:10219000C6100895E82FF0E0E755FD4F80810895BF
:1021A000089580EA8A95F1F7089500C008950E9485
:1021B000D110089508950E94DA100895A6E0B0E0C5
:1021C000E4EEF0E10C94BE240E946912F82E6091B6
:1021D000B502882309F440C086E0E82E8E010F5F27
:1021E0001F4FF8018E2D11928A95E9F7862F90E006
:1021F000B80187559D4F0E94AC128823B9F0809199
:102200009C0290E046E050E0B80187559D4F0E9447
:10221000FD2421E020934702892B91F4F12C0E94A8
:10222000C7108F2D2696E6E00C94DA2480914702A1
:102230008823A1F3F8011192EA94E9F7109247027A
:10224000A0919C02B0E0A755BD4F86E0F801019037
:102250000D928A95E1F7E3CF70E067557D4F80914D
:102260009C0290E087559D4F0E9433130E94DB1023
:10227000D8CFF894E82FE295EF70F0E031A1282F45
:102280002F7081E090E001C0880F2A95EAF7982F1F
:102290009095932391A392A1892B82A3789408957A
:1022A000CF93DF93C2EAD1E089918F3F11F00E9472
:1022B000391181E0C83AD807B9F7CCE9D1E0899162
:1022C0008F3F11F00E94391181E0C23AD807B9F767
:1022D000DF91CF910895B0E0A0E0E1E7F1E10C9447
:1022E000BC24EC01D62E062F10E0C8018E559E4F5F
:1022F0007C01FC0180818F3F09F445C0F894E82FF0
:10230000E295EF70F0E091A18F7021E030E001C024
:10231000220F8A95EAF7892F822B81A382A120952B
:10232000282322A378940E94D510ECE9F1E042EA38
:1023300051E031E0C12C21912F3F51F1A22FA29504
:10234000AF70B0E090968C9190E02F7002C09595A0
:1023500087952A95E2F780FD1BC0832FC82A330F8B
:102360004E175F0741F7F70180818F3F11F00E9400
:10237000391161E0C11001C060E08D2D0E94D710BD
:10238000C00FD11FC882CDB7DEB7E8E00C94D824C7
:1023900080E0E4CF809102018091020196E08111FA
:1023A00090E09093B50286E0891B80939C020E9486
:1023B00050118CE0E9EAF2E0DF01982F1D929A9526
:1023C000E9F7EDE9F2E0DF011D928A95E9F786E091
:1023D0000E942B120E94C3100895ACE0B0E0E3EF1E
:1023E000F1E10C94BF248E010F5F1F4F8CE0F801C8
:1023F00011928A95E9F7F12C6F2DC8010E946B119B
:10240000F394F6E0FF12F8CF4CE050E0B8018DE90C
:1024100092E00E94FD2421E0009709F420E0892B3E
:1024200041F08CE0F801ADE9B2E001900D928A959F
:10243000E1F76091B50270E067557D4F46E08DE9A8
:1024400092E00E942C12182F0E94DE10812B2C96F5
:10245000E5E00C94DB240895CF92DF92EF92FF9297
:102460000F931F93CF936C017B01042F222349F01C
:1024700081E080934A020E94CC1B90934902809392
:102480004802C0914A02C1110AC0C0E08C2FCF910E
:102490001F910F91FF90EF90DF90CF900895809162
:1024A0004802909149020E94E41B059770F310E0E6
:1024B000A801B601C7010E94FD24892B41F0A801A3
:1024C000B601C7010E940A2510924A02DFCFC0E080
:1024D000FBCFCF93DF9380914D02811117C0C8ECE1
:1024E000D0E00E94922481110EC08FE39CE90197F5
:1024F000F1F700C000002197A1F782E080934D0220
:102500000E948D2403C081E080934D0281E0909170
:102510004D02913009F080E0DF91CF9108950E9443
:10252000691291E0892708950E948F128093020119
:102530000E94691281110E94E21208950E9469129C
:10254000811102C00E94E512089581E090914E022F
:102550009A3008F080E008950F931F93CF93DF9394
:10256000EC018B0180914E028A30B8F4B801CE01A3
:102570000E943013C82F811122C080914E028F3FDC
:10258000B9F40E94CC1B90934C0280934B028C2F89
:10259000DF91CF911F910F91089580914B029091FF
:1025A0004C020E94E41B843F914000F7C0E0EFCF53
:1025B0008F5F80934E028A3020F7C1E0E8CF1092FF
:1025C0004E02E5CF0E94A71C08950E94AA1C089500
:1025D000B0E0A0E0EEEEF2E10C94BD247901C82F4A
:1025E000880FDD0B41155105A9F0FE0193E0EE0FB8
:1025F000FF1F9A95E1F7ED5FFE4F81819281815B2C
:102600009D4F208130E04217530708F49A01A90139
:102610000E940A25CE010E94931DD82E8823D1F056
:1026200001151105B9F083E0CC0FDD1F8A95E1F7A4
:10263000FE01ED5FFE4F438150E00417150708F4DB
:10264000A801CD5FDE4F6C817D81615B7D4FC7014D
:102650000E940A258D2DCDB7DEB7E7E00C94D92472
:102660000E94221408950E9439140895A4E0B0E055
:10267000ECE3F3E10C94C02460916802709169026C
:1026800080916A0290916B020E94F31B11E0643604
:1026900071058105910518F10E9487106E5F7F4FCB
:1026A0008F4F9F4F69837A838B839C8310E000E078
:1026B00030E020E044E050E0BE016F5F7F4F82E0F9
:1026C0000E94E812182F882351F00E94D81B6093B3
:1026D00068027093690280936A0290936B02812F63
:1026E0002496E4E00C94DC24B0E0A0E0EAE7F3E117
:1026F0000C94BA247C015B016A010E94A51201E0DE
:1027000010E0882311F00AE010E0C1E0D0E0B5014C
:10271000C701F6010995811104C021960C171D0708
:102720002CF4CDB7DEB7EAE00C94D624CC9F900110
:10273000CD9F300D300D112490E080E045E34A95A7
:10274000F1F70000019682179307C1F7E0CFA7E0E9
:10275000B0E0EDEAF3E10C94BA247B01C090A8014B
:10276000D090A90101E010E09E01295F3F4F50E0A9
:1027700040E070E060E080E00E94E812182F8823BB
:1027800009F448C056018FEFA81AB80A6091640294
:102790007091650280916602909167020E94F31B1E
:1027A000643671058105910568F106E010E09E012F
:1027B0002F5F3F4F50E040E070E060E081E00E941A
:1027C000E812D82E66E070E0C5010E94141711E0EF
:1027D0009F81981310E01D2141F10E94D81B609346
:1027E000640270936502809366029093670286E0AC
:1027F000FE013196AEE5B2E001900D928A95E1F7C7
:1028000011E013C066E070E0C5010E9414179F81BB
:102810008913CBCF86E0F6013196DE011196019047
:102820000D928A95E1F71111E2CF86E0EEE5F2E034
:10283000D70101900D928A95E1F7812F2796EAE062
:102840000C94D6240F931F93CF93DF93EC018B014D
:1028500047EA53E10E947413882331F046E353E1C1
:10286000B801CE010E947413DF91CF911F910F9197
:1028700008950F931F93CF93DF93C091A801D09138
:10288000A901CE01019626E0FB01DC0101900D9229
:102890002A95E1F766E070E00E94141788836F8143
:1028A000788589859A8500915A0210915B02209162
:1028B0005C0230915D02601771078207930751F047
:1028C00060935A0270935B0280935C0290935D0266
:1028D0000E946A10DF91CF911F910F9108950E947D
:1028E000631F0E94C40D0E94701F08950E94751FEF
:1028F0000E94D50D0E948F1F08950E94651B0E94A3
:10290000491F0E94AC0D0E946F140E9476140E9411
:10291000BA0DFBCF9093AB018093AA010895282FA5
:1029200035EB2303C001112497FF04C0805891099F
:10293000892F089580589F4FFBCF8091740280FFAC
:102940000DC060911F0170E0660F771F6038710540
:1029500070F56115710569F1862F089581FF07C033
:1029600060911F0184E0689FB0011124EFCF609156
:102970001F0182FD0AC0809173028823A9F0209173
:102980001E0160911F01821710F088E0ECCF869F36
:10299000C001112433E0880F991F3A95E1F7622FA7
:1029A00070E00E949824D2CF68E070E0D5CF8FE726
:1029B000089581E008958091740280FF0CC06091B9
:1029C0001C0170E0759567957595679561157105A2
:1029D00049F1862F089581FF06C060911C0170E0C7
:1029E00075956795F3CF60911C0182FD0BC09091A6
:1029F00072029923A1F060911B0180911C0196172E
:102A000038F0682F70E06038710500F38FE70895A3
:102A1000899FC001112470E00E949824F4CF61E0E6
:102A200070E0D7CF81E008958D3C31F40E949D1471
:102A300081958093780208958E3C19F40E949D142C
:102A4000F8CF8F3C31F40E949D14819580937702DA
:102A50000895803D19F40E949D14F8CF893D29F412
:102A60000E94DB148093790208958A3D21F40E942C
:102A7000DB148195F7CF8B3D31F40E94DB148195F7
:102A800080937A0208958C3D19F40E94DB14F8CFEC
:102A90009FE2980F983070F4815D990B21E030E04F
:102AA00001C0220F8A95EAF780917602822B8093EB
:102AB000760208958D3D31F4809174028160809397
:102AC000740208958E3D21F4809174028260F7CFE4
:102AD0008F3DB9F7809174028460F1CF4091770205
:102AE0008D3C59F48091780287FF0DC010927802D6
:102AF00041110BC01092730208C08E3C81F480918A
:102B0000780218169CF3442381F080917902909109
:102B10007A02892B09F05AC01092720208958F3CF4
:102B200049F447FFF0CF109277028091780281112B
:102B3000ECCFE0CF803D19F41416ACF3E4CF9091C4
:102B40007902893D29F41916F4F610927902DBCF47
:102B50008A3D19F497FFD7CFF8CF90917A028B3D39
:102B600029F497FFD0CF10927A02CDCF8C3D19F483
:102B70001916CCF3C8CF9FE2980F983090F4815D7E
:102B8000990B21E030E0B90102C0660F771F8A95EA
:102B9000E2F7CB01809590917602892380937602AB
:102BA000B2CF8D3D31F4809174028E7F8093740298
:102BB000AACF8E3D21F4809174028D7FF7CF8F3D97
:102BC00009F0A1CF809174028B7FF0CF08950E940D
:102BD000CC1B9C019091770280917802982B21F078
:102BE00030937102209370029091790280917A0261
:102BF000982B21F030936F0220936E0285E792E0CC
:102C00000E944D1A089586E0E5E7F2E0DF011D928B
:102C10008A95E9F710927302109272021092740270
:102C20000895FC01828181110EC0838181110BC046
:102C30008481811108C091E08581811101C090E0FB
:102C4000892F8170089581E0FCCFA6E0B0E0EBE22F
:102C5000F6E10C94C12486E0E5E7F2E0DE0111968E
:102C600001900D928A95E1F7109277021092780206
:102C70001092790210927A028B819C81892B89F0C3
:102C800080917002909171020E94E41BAC019091BE
:102C900073029923C9F1809120018417150608F465
:102CA00040C08D819E81892B91F080916E02909120
:102CB0006F020E94E41BAC0190917202992309F407
:102CC0006AC080911D018417150608F472C0BE0108
:102CD0006F5F7F4F85E792E00E94FA1A811105C06D
:102CE00085E792E00E94111681110E94E71586E0A7
:102CF000FE013196A5E7B2E001900D928A95E1F7C9
:102D00002696E3E00C94DD2420916D028AE0289F52
:102D1000900111242417350720F69F5F90937302CA
:102D200002C09F3FD1F71B81112359F00E949D14CF
:102D30009FEF11160CF491E0899F802D1124809350
:102D400077021C81112359F00E949D149FEF1116E8
:102D50000CF491E0899F802D11248093780280915A
:102D60007702882309F49DCF10917802112309F48A
:102D700098CF0E948F14882351F080937702812F7F
:102D80000E948F14882329F0809378028ACF81E0F3
:102D9000F4CF81E0F9CF20916C028AE0289F900166
:102DA00011242417350708F092CF9F5F9093720289
:102DB00002C09F3FD1F71D81112359F00E94DB14FF
:102DC0009FEF11160CF491E0899F802D11248093C0
:102DD00079021E81112359F00E94DB149FEF111616
:102DE0000CF491E0899F802D112480937A028091C8
:102DF0007902882309F46BCF10917A02112309F428
:102E000066CF0E948F14882351F080937902812F1E
:102E10000E948F14882329F080937A0258CF81E092
:102E2000F4CF81E0F9CF0895FC01680F791F8FEF8F
:102E300091E36E177F0709F408952191822728E016
:102E400030E087FF06C0880F892721503109C9F774
:102E5000F0CF880FFACFCF93DF93EC01FB01858190
:102E6000882309F4D2C09E0130572332310508F07F
:102E7000B2C00E94D80C90939B0280939A02FE01EC
:102E8000E150F047E232F10520F4ED58FA4D0C9490
:102E9000AC2480919A02816080939A0293C08091C1
:102EA0009B02886080939B028DC080919A02826011
:102EB000F3CF80919A028460EFCF80919A0288606C
:102EC000EBCF80919B028160EDCF80919B0282606D
:102ED000E9CF80919A028061DFCF80919A0280626F
:102EE000DBCF80919A028064D7CF0E941E07809129
:102EF0009A028068D1CF80919A028C60CDCF809168
:102F00009B028360CFCF80919A028E7FC5CF809144
:102F10009B02877FC7CF80919A028D7FBDCF809122
:102F20009A028B7FB9CF80919A02877FB5CF80912B
:102F30009B028E7FB7CF80919B028D7FB3CF809114
:102F40009A028F7EA9CF80919A028F7DA5CF809122
:102F50009A028F7BA1CF0E941E0780919A028F77E1
:102F60009BCF80919A02837F97CF80919B028C7F29
:102F700099CF80919A0282FB992790F921E09227BC
:102F800090FB82F990FB83F987CF80919B02982F69
:102F9000909591708E7F892B90FB81F983CF9091D2
:102FA0009A02892F8F7B96FF806476CF0E941E073E
:102FB00090919A02892F97FB87F980586DCF81E015
:102FC0000E94640D80919A0290919B020E94DD0CF8
:102FD0000E941E0780E0DF91CF91089580E0F0CF3E
:102FE00090919A02892F8F7E94FF806155CF9091A6
:102FF0009A02892F8E7F90FF81604ECF90919B0225
:10300000892F877F93FF88604DCF81E0E4CF8B319C
:1030100009F465C040F58B3071F078F4863009F41E
:1030200047C020F4853059F180E00895873009F4D5
:1030300048C08830C9F781E00895803109F45DC047
:1030400068F48E3089F790914602892F8B7F92FF2A
:1030500084608093460282FD4CC0EDCF863159F3E7
:10306000893149F3E1CF8A3201F160F48732B1F05E
:1030700020F48E31C8F28D514CC08932A9F60E94DD
:10308000CC02D9CF833440F48A3308F041C0853371
:1030900029F0883381F2C8CF833431F681E090E0A3
:1030A0000E946B070E941E07C6CF0E94610DC3CF0E
:1030B00080914602807F8093460281E080937E0269
:1030C000089590914602892F8E7F90FF81608093B2
:1030D000460280FDB0CF817F80934602ACCF9091B5
:1030E0004602892F8D7F91FF82608093460281FF87
:1030F000A2CF809146028160EFCF90914602892F46
:10310000877F93FF88608093460283FDF2CF93CF41
:10311000895321E030E0A90102C0440F551F8A9570
:10312000E2F7CA01BDCF80E008950E949318089588
:10313000CF93C82F80917E028130B9F0882331F07F
:103140008230A1F110927E0280E00DC00E94C20B7D
:103150008232D1F78C2F0E94931881111BC08C2FC3
:103160000E9407188170CF9108950E94C20B82328D
:1031700089F38C2F0E94951881110AC0C43199F0EF
:1031800060F4CB3029F0C03169F782E080937E0291
:1031900081E0E8CF81E090E0E5CFC93221F0C8338B
:1031A000B9F380E0DFCF10927E02FBCFC93209F481
:1031B0003FC0E8F4C431E1F128F4C73009F45BC042
:1031C00081E0D1CF82EE8C0F8A30D0F7CD51C09301
:1031D0007D02C33009F446C0B0F5C13009F43FC0E8
:1031E00080E291E0C230B1F110927D02E9CFC035AA
:1031F00009F452C0B8F48AE0CF3411F7E0917B02B1
:10320000F0917C023097E1F22081082E000C990B9E
:10321000820F911D8F3F910509F00CF441C08FEF93
:103220008083CECFC135D1F181E0C23539F39BCF58
:1032300080917D02882321F210927D0210927C02FF
:1032400010927B02BDCFC53099F078F08BE191E010
:10325000C63051F690937C0280937B02B1CF8DE60D
:1032600092E0F8CF8FE191E0F5CF8EE191E0F2CFDF
:103270008CE191E0EFCF10926D0284E18093200108
:10328000C0931F018CE380931E0188E080931C0192
:1032900088E280931B0194CF86EFB0CF8FEFAECF43
:1032A00097FFBECF10828CCFCF93DF93EB01863197
:1032B0009C4711F50E94C20B9D81992399F08A7A4F
:1032C00091E009F490E090937F02811109C089E2B6
:1032D0000E949A0B0E941B0C80E0DF91CF91089511
:1032E00085E3F6CF80917F02811104C089E20E94BC
:1032F000A20BF0CF85E3FBCF81E0EFCF0F931F93BD
:10330000CF93DF93C42FD22FFC0185818823C9F08E
:10331000409382020E94CC1B909381028093800292
:1033200080E28C0F883040F4C77081E001C0880FC4
:10333000CA95EAF70E94CA04DF91CF911F910F91BD
:10334000089510918202141332C0809180029091EE
:1033500081020E94E41B883C910548F5C0E2CD0F34
:103360001D17B9F080E2810F883040F4177081E0BA
:1033700001C0880F1A95EAF70E94D104C83048F4BA
:1033800081E09D2F977001C0880F9A95EAF70E94FF
:10339000CA04802F0E94C104C83070F6D77081E043
:1033A00001C0880FDA95EAF70E94D104C5CF80E208
:1033B0008C0F883008F6C77081E001C0880FCA956D
:1033C000EAF7F2CF0F93DB0188519C4787309105D4
:1033D000A0F5FC01EB56FA4D0C94AC2406E221EE6C
:1033E00041EE6AE17CE7CD010E947E1980E00F91F9
:1033F000089507E225EE45EE6BE17CE7F4CF06E2A7
:1034000021EE40EE68E17CE7EECF07E225EE44EEE8
:1034100069E17CE7E8CF06E221EE42EE6CE17CE771
:10342000E2CF07E225EE46EE6DE17CE7DCCF08E275
:1034300021E045EE6EE17CE7D6CF15968C9188238E
:1034400019F010928202D3CF81E0D1CF90938902FC
:103450008093880208950E946912811103C08091AF
:1034600083020895E0918802F0918902309729F053
:103470000190F081E02D0995089580E008950E9463
:103480002B1A0895E0918802F0918902309721F07B
:103490000280F381E02D09950895E0918802F09172
:1034A0008902309739F022E0DC012C930480F58109
:1034B000E02D09950895A3E0B0E0E1E6FAE10C946F
:1034C000C224209186023091870228173907A1F083
:1034D0009093870280938602E0918802F09189029E
:1034E000309751F023E029839B838A830680F781FC
:1034F000E02DCE01019609952396E2E00C94DE249E
:10350000A3E0B0E0E6E8FAE10C94C2242091840242
:103510003091850228173907A1F090938502809396
:103520008402E0918802F0918902309751F024E002
:1035300029839B838A830680F781E02DCE01019643
:1035400009952396E2E00C94DE249C012E5F3F4F08
:10355000AC01485F5F4F80E02417350709F40895F8
:10356000F90191919F019923B9F38F5FF5CF6623FC
:1035700049F0FC01329608962191261729F0E817A8
:10358000F907D1F780E0089581E008959C01FC01DE
:1035900032969FEF80E04191461751F09F3F19F41A
:1035A000411101C0982F8F5F8630A9F79F3F09F422
:1035B0000895290F311D97FD3A95F9016283089509
:1035C000FC01329608962191261303C0DF01119762
:1035D0001C92E817F907B9F708950E94C61A0895D2
:1035E0000E94E01A0895029626E0FC0111922A95A5
:1035F000E9F70895DC01FB0111969C9111978181F7
:10360000981322C012968C911297882319F09281F8
:1036100089131AC013968C911397882319F09381FC
:10362000891312C015968C911597882319F09581EE
:1036300089130AC014969C91992321F081E024817A
:10364000291303C080E001C081E0817008950895CE
:103650000E94271B0895811106C081E080938A0291
:103660000E94281B089582E0F9CF83E080938A02AC
:103670000E94281B08950E942B1B089581E08093CF
:103680008A020E94281B08950E943E1B08950895F7
:1036900008950E94481B0895089508950E94471BAD
:1036A0000895CF930E944C1B0E94ED110E944D1B68
:1036B000C0E08C2F0E94CA10811105C0CF5FCC30B2
:1036C000C1F7CF91089581E0FCCF85B7806885BFB1
:1036D00085B7806885BF08951F921FB61F92112479
:1036E0008F939F93AF93BF9380918B02811113C0EF
:1036F0008091B6029091B702A091B802B091B90240
:103700004196A11DB11D8093B6029093B702A0937C
:10371000B802B093B902BF91AF919F918F911F9062
:103720001FBE1F9018958091BE02843031F10E9417
:103730002C0310928B0288E190E020E40FB6F894FD
:10374000A895809360000FBE2093600083B7817FAF
:10375000846083BF83B7816083BF7894889583B783
:103760008E7F83BF0FB6F894A89580916000886122
:1037700080936000109260000FBE08950E941E07A3
:103780000E943103089582E084BD93E095BD9AEFD5
:1037900097BD80936E0008952FB7F8948091B6027C
:1037A0009091B702A091B802B091B9022FBF0895CD
:1037B0002FB7F8946091B6027091B7028091B80269
:1037C0009091B9022FBF08959C014FB7F894809152
:1037D000B6029091B702A091B802B091B9024FBF62
:1037E000821B930B0895CF92DF92EF92FF922FB737
:1037F000F894C090B602D090B702E090B802F09072
:10380000B9022FBFA7019601261B370B480B590B96
:10381000CA01B901FF90EF90DF90CF90089578949E
:103820001F921FB61F9211248F939F93AF93BF9344
:103830008091B6029091B702A091B802B091B902FE
:103840000196A11DB11D8093B6029093B702A0937B
:10385000B802B093B902BF91AF919F918F911F9021
:103860001FBE1F90189587E797E7909301088093F4
:10387000000888E19AE00FB6F894A895809360005C
:103880000FBE90936000FFCF88E19AE00FB6F894E6
:10389000A895809360000FBE90936000FFCF8EE1EB
:1038A000489B02C08150E1F7489BFECF089558988D
:1038B00080E28A95F1F7589A0895FC013BE03A9529
:1038C000F1F798E020E080E031E040E14A95F1F73F
:1038D000880F489B02C08160232742E04A95F1F798
:1038E000000040E14A95F1F7915079F790E19A95FF
:1038F000F1F799B132E03A95F1F7000040E14A95CD
:10390000F1F7917092272081920F90830895A1E0A2
:10391000B0E0EDE8FCE10C94BE2419828C017C013E
:10392000E60EF11C0E151F0541F481E099819111FD
:1039300080E02196E6E00C94DA240E944F1CCE0130
:1039400001960E945D1CF80181938F01EBCF509A84
:10395000589A08955098589AE89AE9E6F0E08081DC
:103960008C7F808308956150770B91E001C0990F9F
:103970006A95EAF720E031E0911108C0222391F026
:10398000589A80E28A95F1F758980895492F48236C
:1039900039F0589A232740E24A95F1F79695ECCFF3
:1039A0005898F9CF5898EDCFFF920F931F93CF936C
:1039B000DF93EC018C01060F111DC017D10729F40C
:1039C000CDB7DEB7E5E00C94DB24F9900E94571CDC
:1039D00068E08F2D0E94B31CF0CF1F920F920FB69C
:1039E0000F9211240F931F932F933F934F935F9345
:1039F0006F937F938F939F93AF93BF93EF93FF93B7
:103A0000CF93DF930F92CDB7DEB719820E944F1C80
:103A1000CE0101960E945D1C082F0695069506951D
:103A2000282F22952570902F9570290F922F937033
:103A300026952695920F982797708981982B09F0E3
:103A40005CC0043008F059C080E18A95F1F7589ABB
:103A5000509A82E08A95F1F700C0589888E0089F54
:103A600080011124D801AD5FBE4F1696ED91FC91F7
:103A700017973097A9F06091A8017091A901149649
:103A80002D913C911597260F371F11968D919C9182
:103A90001297680F791F13964C9113978C91099583
:103AA000F801ED5FFE4F6381662351F02091A8017C
:103AB0003091A90184819581820F931F0E94D41CAB
:103AC0000E94571C80E18A95F1F758985098589AAF
:103AD00080E18A95F1F7F801ED5FFE4F6081662382
:103AE00051F02091A8013091A90181819281820F2A
:103AF000931F0E94871C0E944F1C0F90DF91CF9153
:103B0000FF91EF91BF91AF919F918F917F916F91B5
:103B10005F914F913F912F911F910F910F900FBE89
:103B20000F901F9018950F931F93CF93DF93EC0185
:103B300004970CF04CC0F894509A589885E08A95F8
:103B4000F1F700009C2F969595708C2F8570980F3B
:103B5000892F83709695969523E0CC0FDD1F2A95CB
:103B6000E1F7980F8E01092B0E94571C00C068E0F6
:103B7000802F0E94B31C80E18A95F1F75098589AE3
:103B8000489B1EC087E090E048991CC0FE01ED5F95
:103B9000FE4F63816623F9F02091A8013091A901BD
:103BA00084819581820F931F0E94871C811113C00D
:103BB000509A589A7894DF91CF911F910F91089560
:103BC00000C0DECF019729F4509A589A789480E08B
:103BD000F2CF00C0D9CF0E944F1C80E28A95F1F746
:103BE0005898509A80E18A95F1F7CD5FDE4F688151
:103BF000662351F02091A8013091A90189819A8111
:103C0000820F931F0E94D41C0E94571C789481E05D
:103C1000D2CF8091940208959B01BA019091BE0287
:103C20009430E9F48F708093E9009FEF8091E80071
:103C3000915085FD06C085ED8A95F1F70000911140
:103C4000F5CF8091E80085FF0AC050E040E0C9014F
:103C50000E9406208091E8008E778093E800089506
:103C600043E050E0BC0182E00E940C1E089546E053
:103C700050E0BC0182E00E940C1E0895CF93DF93B8
:103C8000EC0148E050E0BC0181E00E940C1E88E09D
:103C9000FE01ACE8B2E001900D928A95E1F7DF9168
:103CA000CF9108958091BD02811109C00E94962193
:103CB0000E94F3218091E20084608093E2000895E5
:103CC0001092BD0208950E943E1B08956091BA02B1
:103CD00081E0611101C080E00E94351B0895909140
:103CE000BE0281E0943009F080E06091BA020E9447
:103CF0003B1B089542E061EC81E00E94122142E208
:103D000061EC82E00E9412219091BE0281E0943029
:103D100009F080E06091BA020E942B1B0895809107
:103D2000C002833009F461C030F48130D1F18230B7
:103D300009F49EC008958A3009F48AC08B3009F4D2
:103D40006FC0893009F050C08091BF02813209F004
:103D50004BC08091C3029091C402029708F044C006
:103D60008091E800877F8093E8008091E80082FFDF
:103D700037C09091F3008091F200029731F4809166
:103D8000F100813011F0863021F48091F1008093B0
:103D900094028091E8008B778093E8000E9446218E
:103DA00023C08091BF02813AF9F48091E800877FB7
:103DB0008093E8008091C3029091C402892B61F442
:103DC00068E08CE892E070E00E9455208091E80065
:103DD0008B778093E800089560E090E080E0F3CF77
:103DE0008091BE028111C1CF08958091BF02813AB6
:103DF000D9F78091C3029091C402892BA9F78091D1
:103E0000E800877F8093E8008091E80080FFFCCF86
:103E1000809129018093F1008091E8008E77BCCFDA
:103E20008091BF02813201F78091C3029091C40258
:103E3000892BD1F68091E800877F8093E8000E946B
:103E400046218091C102809329010E941E07089596
:103E50008091BF02813241F68091E800877F809394
:103E6000E8000E9446218091C20280939502089545
:103E70008091BF02813A09F0B7CF8091E800877F37
:103E80008093E8008091E80080FFFCCF809195024C
:103E9000C1CF84B7877F84BF0FB6F894A89580916F
:103EA0006000886180936000109260000FBE80E81F
:103EB00090E00FB6F89480936100909361000FBE7C
:103EC0000E94441B08950E9496210E94F321E2EE75
:103ED000F0E080818460808378940E947224089549
:103EE00081E291E00E94261A08958091BE028530F9
:103EF00031F48091BE02853019F00E94BE1B0895F6
:103F00000E94931B8091BC02882399F30E94511B4D
:103F1000882379F30E94F01F0E941E07EACF0895BC
:103F20009A014091C5025091C6020E94981F0895BF
:103F3000492F55274330510519F168F44130510597
:103F400009F444C04230510509F445C090E080E0D6
:103F500050E040E025C04132510549F1423251055F
:103F6000A9F784E490E046EF53E061157105C1F0D4
:103F70008BE790E04BE753E06130710589F0E6CFC5
:103F800099278130910581F0009729F00297F1F689
:103F9000ECEEF2E002C0EAE2F3E0849190E0AF01DF
:103FA000F901518340830895EAE1F3E0F6CF89E017
:103FB00090E040E453E06115710591F389E090E0F1
:103FC00049E553E06130710559F3C0CF82E190E0DB
:103FD00049E653E0E5CF8BE390E04EE253E0E0CFDB
:103FE00080E189BD82E189BD09B400FEFDCF8091E9
:103FF000D8008F7D8093D8008091E000826080930C
:10400000E0008091E00081FDFCCF0895AF92BF9267
:10401000CF92DF92FF920F931F93CF93DF936C01A8
:10402000EB018A010E946521F82E811123C0011540
:10403000110539F0F80180819181C81BD90BC80E98
:10404000D91EB12CA12C2097A9F08091E80085FD04
:1040500022C08091E8008E778093E8000115110559
:10406000A1F0F80180819181A80EB91EB182A082D1
:1040700085E0F82E8F2DDF91CF911F910F91FF904A
:10408000DF90CF90BF90AF9008950E946521882364
:10409000D1F2F82EEFCFF60181916F018093F100FC
:1040A0002197FFEFAF1ABF0ACECFFC018091C50266
:1040B0009091C60286179707A0F06115710529F443
:1040C0009091E8009E779093E80090E0611571056B
:1040D00051F4911108C08091E80082FF34C080E063
:1040E0000895BC01F2CF8091BE028823C1F18530D2
:1040F000C1F18091E80083FD30C08091E80082FD2D
:10410000EACF8091E80080FFE1CF8091F300209119
:10411000F200382F6115710519F02830310558F07B
:1041200091E02830310509F090E02091E8002E77E9
:104130002093E800CBCF81918093F1006150710909
:104140002F5F3F4FE7CF8091BE02882341F085303B
:1041500041F08091E80083FFBECF81E0089582E0C6
:10416000089583E00895FC018091C5029091C602F4
:1041700086179707A0F06115710529F48091E80072
:104180008E778093E80090E06115710551F49111EC
:1041900008C08091E80082FF35C080E00895BC012E
:1041A000F2CF8091BE028823C9F18530C9F1809198
:1041B000E80083FD31C08091E80082FDEACF809164
:1041C000E80080FFE1CF8091F3002091F200382FCA
:1041D0006115710519F02830310558F091E028304B
:1041E000310509F090E08091E8008E778093E80037
:1041F000CBCF84918093F1003196615071092F5F8C
:104200003F4FE6CF8091BE02882341F0853041F0D8
:104210008091E80083FFBDCF81E0089582E008959A
:1042200083E00895982F973028F08F708093E900ED
:1042300081E008959093E900242F762F50E098179D
:1042400031F07091EC002091ED005091F00021FDD3
:1042500002C09F5FE8CF3091EB003E7F3093EB00D0
:104260003091ED003D7F3093ED003091EB003160F7
:104270003093EB007093EC002093ED005093F0002E
:104280002091EE0027FDE5CF80E008958091BF02E8
:1042900087FF13C08091E80082FF06C08091E8008C
:1042A0008B778093E80004C08091BE028111F2CF29
:1042B00008958091BE028823D9F38091E80080FFA1
:1042C000F8CF8091E8008E77ECCF2091E400309118
:1042D000E50095E6A9012091EC00822F817020FF76
:1042E00006C08091E80080FF06C080E0089520911C
:1042F000E80022FD1AC08091BE02882389F0853033
:1043000089F08091EB0085FD0FC02091E400309191
:10431000E50042175307F9F29150E1F684E0089561
:1043200082E0089583E0089581E008950E940522C7
:104330000E940D22E0EEF0E0808181608083E8ED54
:10434000F0E080818F77808319BCA7EDB0E08C917D
:104350008E7F8C9380818F7E80831092BD02089522
:104360000F931F93CF93DF930E9405220E940D228B
:10437000C8EDD0E088818F778883888180688883C2
:1043800088818F7D888319BC1092BE021092BA0278
:104390001092BC021092BB0200EE10E0F801808186
:1043A0008B7F808388818160888342E060E080E049
:1043B0000E941221E1EEF0E080818E7F8083E2EEA8
:1043C000F0E0808181608083808188608083F80153
:1043D00080818E7F8083888180618883DF91CF9107
:1043E0001F910F910895E8EDF0E080818F7E80832A
:1043F000E7EDF0E080818160808384E082BF81E02E
:104400008093BD020E94B0210895E8EDF0E0808124
:104410008E7F80831092E20008951092DA0010924D
:10442000E10008951F920F920FB60F9211242F935F
:104430003F934F935F936F937F938F939F93AF932C
:10444000BF93EF93FF938091E10082FF0BC08091B7
:10445000E20082FF07C08091E1008B7F8093E10042
:104460000E9471248091DA0080FF19C08091D800E9
:1044700080FF15C08091DA008E7F8093DA008091F2
:10448000D90080FF96C080E189BD82E189BD09B471
:1044900000FEFDCF81E08093BE020E94521E8091FB
:1044A000E10080FF19C08091E20080FF15C080917B
:1044B000E2008E7F8093E2008091E2008061809331
:1044C000E2008091D80080628093D80019BC85E01A
:1044D0008093BE020E94661E8091E10084FF2BC083
:1044E0008091E20084FF27C080E189BD82E189BD1F
:1044F00089B5982F917080FFFBCF8091D8008F7D78
:104500008093D8008091E1008F7E8093E1008091BC
:10451000E2008F7E8093E2008091E20081608093D0
:10452000E2008091BA02882309F449C084E08093B4
:10453000BE020E946F1E8091E10083FF29C080911E
:10454000E20083FF25C08091E100877F8093E10036
:1045500082E08093BE021092BA028091E1008E7FC9
:104560008093E1008091E2008E7F8093E200809151
:10457000E20080618093E20042E060E080E00E941F
:1045800012218091F00088608093F0000E94631EE9
:10459000FF91EF91BF91AF919F918F917F916F911B
:1045A0005F914F913F912F910F900FBE0F901F90F1
:1045B000189519BC1092BE020E94601E70CF8091A7
:1045C000E30087FD93E09093BE02B3CF1F920F925A
:1045D0000FB60F9211242F933F934F935F936F93D6
:1045E0007F938F939F93AF93BF93CF93DF93EF937B
:1045F000FF93D091E900DF708091EC00C82FC1706B
:1046000080FDC0E81092E9008091F000877F8093E0
:10461000F00078940E942A231092E9008091F00023
:1046200088608093F000CD2BCF70C093E900FF919C
:10463000EF91DF91CF91BF91AF919F918F917F913A
:104640006F915F914F913F912F910F900FBE0F90FF
:104650001F901895AAE2B0E0E0E3F3E20C94C124C5
:104660008FEB92E02091F100FC012193CF01F2E069
:10467000873C9F07B9F70E948F1E8091E80083FF57
:104680001EC18091BF029091C0029A3008F017C1FC
:10469000E92FF0E0E456FA4D0C94AC24803899F000
:1046A000823809F00CC18091C3028F70873008F006
:1046B00006C18093E9008091EB0085FB882780F993
:1046C0001092E90006C08091BB029091BC0291114A
:1046D00082609091E800977F9093E8008093F100CA
:1046E0001092F1008091E8008E77E5C0882309F4EC
:1046F000D3C0823009F0E3C08091C1028111D6C0DD
:104700008091C3028F702FEF280F263008F0D7C09A
:104710008093E9002091EB0020FFC8C0933031F472
:104720008091EB0080628093EB00C0C09091EB0021
:1047300090619093EB0021E030E001C0220F8A9558
:10474000EAF72093EA001092EA008091EB0088607B
:10475000EACF8111B4C01091C1021F778091E300AC
:104760008078812B8093E3008091E800877F80939D
:10477000E8000E9446218091E80080FFFCCF8091F4
:10478000E30080688093E30082E0111183E080936E
:10479000BE0295C08058823008F091C08091C1025D
:1047A0009091C2028C3D23E09207A1F583E08A83B9
:1047B0008AE289834FB7F894DE01139620E03EE049
:1047C00051E2E32FF0E050935700E49120FF03C043
:1047D000E295EF703F5FEF708E2F90E0EA30C0F00F
:1047E000C7968D939D932F5F243159F74FBF8091CA
:1047F000E800877F8093E8006AE270E0CE010196CE
:104800000E9455208091E8008B778093E80057C084
:10481000C096E7CF6091C3027091C402AE014F5FB2
:104820005F4F0E94901FBC01892B09F448C09091F2
:10483000E800977F9093E80089819A810E94B320D5
:10484000E1CF8038E1F58091E800877F8093E80030
:104850008091BA028093F10045CF811130C09091D0
:10486000C102923060F58091E800877F8093E80074
:104870009093BA020E9446218091BA02882311F0D7
:1048800084E005C08091E30087FDFACF81E080934A
:10489000BE020E947A1E13C08091C102813079F459
:1048A00081E0933009F080E08093BC021092E9002F
:1048B0008091E800877F8093E8000E9446218091E4
:1048C000E80083FF0AC08091E800877F8093E800BA
:1048D0008091EB0080628093EB00AA96E3E00C9459
:1048E000DD240895CF938091BE028823A1F0C0916A
:1048F000E900CF709091EC00892F817090FD80E8E5
:10490000C82B1092E9008091E80083FD0E942A23C1
:10491000CF70C093E900CF9108950E949621109224
:10492000BE0208958091E300881F8827881F08959C
:1049300097FB072E16F4009407D077FD09D00E944C
:10494000E92407FC05D03EF4909581959F4F08958A
:10495000709561957F4F0895EE0FFF1F0590F491BC
:10496000E02D09942F923F924F925F926F927F9227
:104970008F929F92AF92BF92CF92DF92EF92FF926F
:104980000F931F93CF93DF93CDB7DEB7CA1BDB0B1B
:104990000FB6F894DEBF0FBECDBF09942A883988C0
:1049A00048885F846E847D848C849B84AA84B984C7
:1049B000C884DF80EE80FD800C811B81AA81B981D3
:1049C000CE0FD11D0FB6F894DEBF0FBECDBFED01E7
:1049D0000895AA1BBB1B51E107C0AA1FBB1FA61746
:1049E000B70710F0A61BB70B881F991F5A95A9F798
:1049F00080959095BC01CD010895FB01DC0104C0B8
:104A00008D910190801921F441505040C8F7881BC6
:104A1000990B0895FB01DC0102C001900D924150F9
:104A20005040D8F70895F999FECF92BD81BDF89A0C
:104A3000992780B50895A8E1B0E042E050E00C94D9
:104A40005725DC01A40FB51F4150504048F0CB0161
:104A5000840F951F2E910E94322541505040D0F76F
:104A60000895262FF999FECF92BD81BDF89A01973E
:104A700000B4021639F01FBA20BD0FB6F894FA9AA6
:104A8000F99A0FBE08950396272F0E9432250E949F
:104A90003125252F0E943225242F0C943225019692
:104AA000272F0E9432250C943125DC01CB01FC011B
:104AB000F999FECF06C0F2BDE1BDF89A319600B477
:104AC0000D9241505040B8F70895F894FFCF170564
:104AD000170567056705CC05E80546054605ED059C
:104AE0005E066D066D068317F7178B175517591756
:104AF0008F175D1793179F176917F0176D17A31777
:104B00007117A717CF177517AB17D6177B17B117E4
:104B1000B9176117971765179B177F17B517C51733
:104B2000DF17EE174F178717FE17FF19051AEE1933
:104B3000F9190B1A111A171A4E2376235F247623BC
:0C4B40005F24A923CA235F2421242D2414
:104B4C002602010000000100000000000000060128
:104B5C0000000004070000000000002808503C077B
:104B6C0014091E3E1E371E301E01E200E900EA0049
:104B7C00B500B600B700CD008301CC008A019201CC
:104B8C0094012102230224022502260227022A0272
:104B9C00B300B4006F0070009F01CB019F02A00214
:104BAC00818283E200E900EA00B500B600B700CDCF
:104BBC00008301CC008A019201940121022302247A
:104BCC00022502260227022A02B300B4006F0070ED
:104BDC00009F01CB019F02A002818283946697C63D
:0A4BEC003435F6F7313332364F024C
:00000001FF
